S021000073656E736F72426F6172644C6564537472697044696D6D65722E73726563FC
S113000019C028C027C026C025C024C023C022C0D0
S113001022C020C01FC01EC01DC01CC01BC01AC0EF
S113002019C018C017C016C015C014C013C012C020
S113003011C010C011241FBECFEFCDBFDFE3DEBF60
S11300402FE3A0E0BFE301C01D92A632B207E1F79F
S113005027D14BC1D5CF1F920F920FB60F92112407
S11300602F933F938F939F93EF93FF93E091093FD7
S1130070EF5FE093093FF0E0E251FD47808190E0BB
S11300808093260A9093270A2091093F211102C0E8
S113009010920A3F80910A3F90E0FC01EE0FFF1F8F
S11300A0E80FF91FE55FF04C308123131EC0FC01FB
S11300B0EE0FFF1F8E0F9F1FFC01E55FF04C818147
S11300C08093040480910A3F90E0FC01EE0FFF1F2F
S11300D08E0F9F1FFC01E55FF04C82818093240406
S11300E080910A3F8F5F80930A3F81E080930B0ADF
S11300F0FF91EF919F918F913F912F910F900FBEA0
S11301000F901F901895DF92EF92FF920F931F9319
S1130110CF93DF9310920B3F6091073F611102C0B0
S113012080E001C082E07091083F91E0711101C04C
S113013090E0892B80930D3FA091063FA11102C04E
S113014090E001C090E8B091053FB11102C080E099
S113015001C080E4892BC091043FC11102C090E02A
S113016001C090E2892BD091033FD11102C090E0ED
S113017001C090E1892B1091023F111102C090E05F
S113018001C098E0892B0091013F011102C090E069
S113019001C094E0892BF090003FF11002C090E080
S11301A001C092E0892B80930C3F91E020E0689499
S11301B0EE24E7F86894DD24D6F8961710F030E0C2
S11301C001C032E081E0971708F080E0382B9A17DD
S11301D010F040E001C04E2D9B1710F080E001C0EC
S11301E08D2D842B9C1710F040E001C040E2842B3D
S11301F09D1710F040E001C040E1842B911710F0EE
S113020040E001C048E0842B901710F040E001C0AA
S113021044E0842B9F1510F040E001C042E0842BA1
S1130220422F50E0FA01EE0FFF1FE40FF51FE55FC8
S1130230F04CE1818E130AC0FA01EE0FFF1FE40FA8
S1130240F51FE55FF04C4281341769F02F5FE22F10
S1130250F0E0AF01440F551FE40FF51FE55FF04CCC
S11302608183328390839F5F9F3F09F0A6CF2F5FE6
S1130270293070F4822F90E0FC01EE0FFF1F8E0FE7
S11302809F1FFC01E55FF04C10822F5F293091F72E
S1130290DF91CF911F910F91FF90EF90DF90089520
S11302A088ED84BF81E0809361008093620093E0D5
S11302B0909320049EEF9093000420E830E0209374
S11302C0260A3093270A8093000A80930A0A7894B6
S11302D0C6E0DFE38FEC94E80197F1F700C000007B
S11102E08A818F5F8A830FDFF5CFF894FFCFFA
S11302EE80808080808080808080808080808080FC
S11302FE80808080818181818181818181818181E0
S113030E81818181818181818282828282828282C3
S113031E82828282828282828282828283838383A7
S113032E838383838383838383838383838383838B
S113033E848484848484848484848484848484846B
S113034E848484848585858585858585858586864D
S113035E8686868686868686878787878787878723
S113036E87878888888888888888888889898989F9
S113037E8989898989898A8A8A8A8A8A8A8A8A8AD1
S113038E8B8B8B8B8B8B8C8C8C8C8C8C8D8D8D8D9D
S113039E8D8D8D8D8E8E8E8E8F8F8F8F8F90909064
S11303AE909091919191919192929293939394941E
S11303BE94959595969696979797989898999999BE
S11303CE9A9A9A9B9B9B9C9C9C9D9D9E9E9F9FA054
S11303DEA0A1A2A3A4A5A6A7A8A9AAABACADAEAF93
S9030000FC
