:1000000019C033C032C031C030C02FC02EC02DC087
:100010002DC02BC02AC029C028C0F4C026C025C0CE
:1000200024C023C022C021C020C01FC085C01DC065
:100030001CC01BC011241FBECFEFCDBFDFE3DEBF4E
:100040001FE3A0E0BFE3E2E3F8E002C005900D92F9
:10005000A230B107D9F72FE3A2E0BFE301C01D92A0
:10006000A337B207E1F74DD262C3CACF1F920F92F6
:100070000FB60F9211242F938F939F93EF93FF93BB
:10008000E091283FEF5FE093283FF0E0EE5CF84717
:10009000808190E08093260A9093270A2091283F40
:1000A000211113C01092293F80912A3F811107C06E
:1000B00089E49FE38093003F9093013F06C08BE269
:1000C0009FE38093003F9093013F8091293F90E010
:1000D000FC01EE0FFF1F8E0F9F1FE091003FF0917C
:1000E000013FE80FF91F8081281319C08181809397
:1000F00004048091293F90E0FC01EE0FFF1F8E0F5A
:100100009F1FE091003FF091013FE80FF91F8281AE
:10011000809324048091293F8F5F8093293F81E061
:1001200080930B0AFF91EF919F918F912F910F90E8
:100130000FBE0F901F9018951F920F920FB60F923F
:1001400011248F939F93EF93FF938091033F90919E
:100150000008E82FF0E0E959F04C90838C3061F40E
:100160001092033F81E08093023FE0E4FAE01286C0
:10017000138682E0808309C08F5F8093033FE0E4B1
:10018000FAE01286138683E08083FF91EF919F91BE
:100190008F910F900FBE0F901F9018950F931F9384
:1001A000A09124110A2E000CBB0BBC5F2BE531E0A3
:1001B000B8D28B019C01992324F401501C4F2F4F7E
:1001C0003F4FD901C801072E7AE0B595A7959795BD
:1001D00087957A95D1F7702DE0E0F8E080879187D8
:1001E00080E8858380EC868383E0878380E01F91AD
:1001F0000F910895E0E0F8E0948195FFFDCF8093A2
:10020000020808951F920F920FB60F9211242F9398
:100210003F934F935F936F937F938F939F93AF938E
:10022000BF93EF93FF931092033F82E08093400AC5
:1002300081E08093460A8FE4DDDFFF91EF91BF916B
:10024000AF919F918F917F916F915F914F913F916E
:100250002F910F900FBE0F901F9018952F923F92E5
:100260004F925F926F927F928F929F92AF92BF92C6
:10027000CF92DF92EF92FF920F931F93CF93DF9372
:10028000CDB7DEB76397CDBFDEBF80902A3F882011
:1002900019F009E41FE302C00BE21FE319820F2EDD
:1002A000F4E0EF2EFFE3FF2EF02D5E018BE0A80EB1
:1002B000B11C6E0192E0C90ED11C0F2EF8E26F2E18
:1002C000FFE37F2EF02D0F2EF0E12F2EF7E23F2ED1
:1002D000412C512CF02DD7016D917D918D919D91E7
:1002E0007D01A2019101D3D1F50121935F01D601D6
:1002F0002D936D016E147F0471F76894EE24E3F87A
:10030000F12C30C081E090E041E0A1E0B0E0AC0F22
:10031000BD1FA80FB91F5C919C012F5F3F4FA1E04B
:10032000B0E0AC0FBD1FA20FB31F6C91651780F436
:10033000A1E0B0E0AC0FBD1F8A0F9B1FDC016C93E6
:1003400081E090E08C0F9D1F280F391FD9015C932D
:100350004F5F842F90E08E179F07BCF2B1E0EB1A3D
:10036000F10830F0F70182E0E816F1045CF6F6CF10
:10037000D8011C929C84911002C080E001C082E0F0
:100380006D8591E0611101C090E0892BF8018283B5
:100390007B85711102C090E001C090E8F888F110EF
:1003A00002C080E001C080E4892BEF84E11002C02C
:1003B00090E001C090E2892BDE84D11002C090E071
:1003C00001C090E1892BCB88C11002C090E001C030
:1003D00098E0892BBA88B11002C090E001C094E087
:1003E000892BA988A11002C090E001C092E0892B5E
:1003F000D80111968C93DE0111969E01265F3F4F26
:1004000090E06894772476F86894662467F8FD0194
:1004100011968C91119740811196841709F440C070
:100420009F5FE92FF0E0AF01440F551FE40FF51F68
:10043000E00FF11F8083891510F040E001C042E019
:1004400051E0861708F050E0452B4283871710F0E3
:1004500050E001C0562D8F1510F040E001C0472D2F
:10046000452B8E1510F050E001C050E2452B8D1544
:1004700010F050E001C050E1452B8C1510F050E019
:1004800001C058E0452B8B1510F050E001C054E03E
:10049000452B8A1510F080E001C082E0842B818317
:1004A0002A173B0709F0B3CF21E0290F2A3070F457
:1004B000822F90E0FC01EE0FFF1F8E0F9F1FF801AF
:1004C000E80FF91F10822F5F2A3091F781E0811029
:1004D00080E080932A3F6396CDBFDEBFDF91CF914E
:1004E0001F910F91FF90EF90DF90CF90BF90AF9052
:1004F0009F908F907F906F905F904F903F902F9044
:100500000895CF93DF93CDB7DEB7E897CDBFDEBFB9
:1005100088ED84BF11E0109361001093620084E0C5
:100520008093240487E0809320048EEF809300045E
:1005300035DE80E890E08093260A9093270A109396
:10054000000A10930A0AE0E4FAE08FEF9FEF848735
:1005500095871092410A15837894FE01319684E2C2
:10056000DF011D928A95E9F7B49682E1DF011D92C1
:100570008A95E9F71E01B7E32B0E311C0F2EFBEA1B
:100580005F2EF02D8091023F882309F44FC0109216
:10059000023FE7E6FFE3EFABF8AF0F2EF4E0CF2E1C
:1005A000FFE3DF2EF02DCE0101967C018E010B5D65
:1005B0001F4F0F2EF9E06F2EF02D712C759C812DA1
:1005C00011248695982F990F890F781201C0639492
:1005D000AFA9B8AD2D91AFABB8AFF60181909190B6
:1005E000A190B1906F01E62DF0E0E959F04C408008
:1005F00030E0A0E1B7E289D0681979098A099B093E
:10060000242D30E040E050E064D0D7012D933D939D
:100610004D935D937D01842D90E0F801819391933A
:100620008F017394F9E07F12C9CFACCFFE01B5966C
:1006300004E01FE39E012F5F3F4F40E080819181E6
:100640000097C1F0019780839183D801CD90DD9010
:10065000ED90FC90D9014D915D916D917C914C0D87
:100660005D1D6E1D7F1DD8014D935D936D937C9331
:10067000139741E032960C5F1F4F2C5F3F4FE215FE
:10068000F305E1F6442309F47DCFE8DD7BCFA1E259
:100690001A2EAA1BBB1BFD010DC0AA1FBB1FEE1FFC
:1006A000FF1FA217B307E407F50720F0A21BB30B47
:1006B000E40BF50B661F771F881F991F1A9469F7C3
:1006C00060957095809590959B01AC01BD01CF011F
:1006D0000895052E97FB16F400940FD057FD05D012
:1006E000D6DF07FC02D046F408C0509540953095FF
:1006F00021953F4F4F4F5F4F08959095809570958E
:1007000061957F4F8F4F9F4F0895A29FB001B39F78
:10071000C001A39F01D0B29F700D811D1124911DB6
:100720000895F3DFB7FF0895821B930B0895F894A3
:02073000FFCFF9
:1007320080808080808080808080808080808080B7
:10074200808080808181818181818181818181819B
:10075200818181818181818182828282828282827F
:100762008282828282828282828282828383838363
:100772008383838383838383838383838383838347
:100782008484848484848484848484848484848427
:100792008484848485858585858585858585868609
:1007A20086868686868686868787878787878787DF
:1007B20087878888888888888888888889898989B5
:1007C2008989898989898A8A8A8A8A8A8A8A8A8A8D
:1007D2008B8B8B8B8B8B8C8C8C8C8C8C8D8D8D8D59
:1007E2008D8D8D8D8E8E8E8E8F8F8F8F8F90909020
:1007F20090909191919191919292929393939494DA
:100802009495959596969697979798989899999979
:100812009A9A9A9B9B9B9C9C9C9D9D9E9E9F9FA00F
:10082200A0A1A2A3A4A5A6A7A8A9AAABACADAEAF4E
:02083200493F3C
:00000001FF
